S0160000496E746572727570745F746573742E7372656322
S113000090200020B9090000090B0000B509000088
S113001000000000000000000000000000000000DC
S1130020000000000000000000000000B50900000E
S11300300000000000000000B5090000B509000040
S1130040B5090000B5090000B5090000B5090000B4
S11300504D030000B5090000B5090000B509000012
S1130060B5090000B5090000B5090000B509000094
S1130070B5090000B5090000B5090000B509000084
S1130080B5090000B5090000B5090000B509000074
S1130090B50900000000000000000000B5090000E0
S11300A0B5090000B5090000B5090000B509000054
S11300B00000000010B5064C2378002B07D1054B37
S11300C0002B02D0044800E000BF0123237010BDC0
S11300D00C00002000000000C00D0000084B10B50B
S11300E0002B03D00749084800E000BF0748036815
S11300F0002B00D110BD064B002BFBD09847F9E72D
S11301000000000010000020C00D0000C00D000021
S11301100000000070B50020084B98470500084C0B
S1130120FA218900A047074B186007492800A04717
S1130130064B18600522064B1A6070BD4507000087
S1130140F90B00000000002040420F0004000020D2
S113015010E000E030B5084B1C68084A00258021F7
S11301604902013807D3002CFBD054609560136812
S11301700B42FCD0F5E730BD0000002010E000E0A9
S1130180044A137802210B43137053785BB2002B9B
S1130190FBDB70470018004000B583B0124A936936
S11301A040210B43936101A900230B7005200F4BE1
S11301B0984705200E4B98470E4A137801210B43AC
S11301C0137053785BB2002BFBDB0B4B19004031EF
S11301D0002204C39942FCD11022084B1A60084B38
S11301E0984703B000BDC046000400405D0800000D
S11301F0D1070000001800404800002000E100E0A2
S113020081010000002303604360012202724272F4
S113021083720233C3727047F0B583B005000C00DB
S113022001A900234B70CB7023790B70237A8B7058
S11302302078154B984700201F2D00D8134807221B
S11302402A409200E77AA37A002B01D008231F43A7
S1130250EB089B00C31899690F269640B143974059
S11302603A000A439A61637A002B06D1436901225A
S1130270AA409343436103B0F0BD42690123AB40FC
S113028013434361F7E7C0465509000000180040D6
S113029070B582B004000E0001A900234B70CB702E
S11302A033790B70337A8B703078104B9847002574
S11302B01F2C00D80E4DB47A737A002B01D008237A
S11302C01C430B4A137802218B43137053785BB29F
S11302D0002BFBDB0520074B9847AC700520064B31
S11302E09847064B9847002002B070BD550900009E
S11302F00018004001080000D1070000810100003F
S11303001723002A01D0180070478B00064A9B5817
S1130310002B03D0834205D01D23F4E789008850C5
S11303200023F0E70023EEE748000020172300290C
S113033001D01800704700221F2800D8024A012368
S11303408340D3600023F4E70018004070B5002216
S1130350104B1A70002310491F25104E0D4C0AE053
S11303600D4908E023780133DBB223700F2B10D83A
S113037000211F2BF4D9280018400122824008696B
S11303801042EFD00A619B009B59002BEAD098479A
S1130390E8E770BD880000200018004048000020F5
S11303A0704700000C4B1B68002B06D1EFF3108341
S11303B0002B07D00022094B1A70074A1368013337
S11303C01360704772B6BFF35F8F0022044B1A703C
S11303D00132024B1A70F0E7280000202C000020A4
S11303E008000020084B1A68013A1A601B68002BA9
S11303F009D1064B1B78002B05D00122044B1A703F
S1130400BFF35F8F62B67047280000202C000020E5
S11304100800002010B5082803D880001C4B1B5886
S11304209F46002032E01B4B18692FE01A4B1B6AD1
S11304309B059B0F1948D84028E0164B586925E0C6
S1130440144B1B6800209B0720D513491022CB684E
S11304501A42FCD00F4B1A6824231340042B01D0FA
S11304600F4813E000200F4B98470A4B9B681B046E
S11304701B0C58430AE05023074AD35C00205B0757
S113048004D5044BD86801E08020000210BDC046AA
S1130490580D0000300000200008004000127A00CF
S11304A0006CDC027908000070B50C490B6A047812
S11304B0857840780122104080014026B3430343ED
S11304C02A40D20180208343134303222240120294
S11304D00348034013430B6270BDC046000800404C
S11304E0FFFCFFFF082803D88000254B1B589F46BC
S11304F0172044E0234A136A02210B4313620020AD
S11305003DE0204A936902210B439361002036E0C9
S11305101C4A138A02210B43138200202FE0194A3C
S1130520938A02210B439382002028E016490B682A
S1130530022213430B60134B9A8419000E32CB68CA
S11305401A42FCD0104A91680E4BD96252689A62E2
S113055000229A8419001032CB681A42FCD00A4B4C
S11305601B689BB2074A9384002008E00549442293
S11305708B5C022003438B54002000E00020704772
S11305807C0D0000000800403000002030B585B02C
S1130590C222D2001A4B9A601A4A53681E218B4316
S11305A0536001236A4613700024174DE0B2694674
S11305B0A8470134252CF9D103A80024447001254F
S11305C085700470114B98470620114B9847114BC6
S11305D09847114B1C725C729C72DC7201956B46DD
S11305E05C7006236A4613701472547269460020C4
S11305F00A4B984700200A4B984705B030BDC046C7
S113060000080040004000415D080000A90400000B
S1130610E50400002506000000040040490600002F
S113062001070000064A936908210B4393610122E4
S1130630044B1A7019000B781342FCD17047C04662
S113064000040040000C004070B5060004000D7862
S11306502D0205434B78002B02D08023DB021D437F
S11306604B7A002B02D080231B031D4348680128CA
S113067010D9431E184234D1022830D90223002253
S113068001325B009842FBD81202324314008023EB
S11306905B031D430B7A002B02D080239B031D4375
S11306A0134A53785BB2002BFBDB124B9847124B77
S11306B01E700F4A53785BB2002BFBDB0C4B9C6023
S11306C01A0053785BB2002BFBDB094A5368802184
S11306D049020B401D435560084B984770BD0022EA
S11306E0D2E70402344380239B021D43D2E7C04671
S11306F0000C0040A5030000080C0040E5030000C6
S113070010B504000B4A53785BB2002BFBDB0A4B99
S113071098470A4B1C70074A53785BB2002BFBDBEB
S1130720044A516880235B020B435360044B98478F
S113073010BDC046000C0040A5030000040C00409E
S1130740E503000070B504001A4A53785BB2002B2D
S1130750FBDB194B9847194B1C70164A53785BB254
S1130760002BFBDB134E7068C004C00E144B98477B
S11307700500124B1C707668F602F60F114B1C70C4
S11307800C4A53785BB2002BFBDB0A4B9C682402B7
S1130790240C0D4B9847002E07D1012C07D92100BA
S11307A028000A4B9847050001E00134E540280081
S11307B070BDC046000C0040A5030000040C0040BE
S11307C015040000080C0040E5030000F90B0000CC
S11307D010B50400064B9847064B1C70064A538814
S11307E08021C9010B435380044B984710BDC04678
S11307F0A5030000020C0040000C0040E5030000CB
S113080010B504000F4B98470F4B1C700F4A5388C8
S11308101B05180F53880E490B40538053880D490C
S11308200B40538011008022D2014B881342FCD12B
S113083006494A8803020648024013434B80064B8C
S1130840984710BDA5030000020C0040000C0040B6
S1130850FFF0FFFFFFBFFFFFE503000010B50C78BA
S113086024020443024B9847A4B2024B5C8010BD9F
S113087001080000000C004010B50400064B984726
S1130880064B1C70064B5C882405240F054B9847C7
S11308902000054B984710BDA5030000020C004042
S11308A0000C0040E50300004507000030B5D37894
S11308B0002B35D11378802B29D01B0680246402A9
S11308C0234354780225AC4306D19478002C20D1DC
S11308D08024A402234341605478013C012C1CD998
S11308E00D042D0CA024E4052C431C4384620D0C40
S11308F0D02424062C431C438462D478002C22D1B7
S11309005B031CD59378012B1ED0416117E00023B3
S1130910D7E7C024E4022343DDE70D4C2340DFE79F
S113092041600C04240CA023DB05234383620C0CDC
S1130930D0231B0623438362D378002B03D153783F
S1130940013B012B02D930BD8161F8E78160FAE7F0
S1130950FFFFFBFF10B50A00C1090023002904D1E1
S11309604309DB0105498C4663441F2420400121CF
S113097081401800024B984710BDC0460044004116
S1130980AD0800007047000010B5054B9847054BB3
S11309909847054B9847054B9847054B984710BD1A
S11309A08D050000A10300008509000099010000E5
S11309B085090000FEE70000F8B52A4A2A4B9A424E
S11309C011D01A00294B9A420DD2294A03339B1A9B
S11309D09B0801339B000022234822498C588450F1
S11309E004329A42FAD1234A234B9A420AD2D3437D
S11309F021495B1803218B4304339B18002102C255
S1130A009342FCD11D4AFF211D4B8B439360FD395A
S1130A1090235B001B4AD1501B4AD3780325AB4378
S1130A2002242343D370D3780C27BB4308263343D3
S1130A30D370164B987B3022904320221043987336
S1130A40997BB943314399739A7BAA4322439A739E
S1130A500F4A536880210B4353600E4B98470E4B4B
S1130A609847FEE7C00D0000000000200C000020A5
S1130A70040000200C0000208C00002000ED00E0A9
S1130A800000000000700041005000410048004197
S1130A9000400041110D00007D0B0000F8B5074C2B
S1130AA01026266040272760FA208000044DA847BE
S1130AB026602760FA208000A847F8BD1C44004146
S1130AC05501000010B5034B984780221202024BD7
S1130AD01A6110BD9D0A00000018004000B585B0E1
S1130AE001A901230B7200234B7208330193A02345
S1130AF09B034B6003238B720020024B984705B085
S1130B0000BDC0469102000010B5034B9847012276
S1130B10024BDA7010BDC0469D0A00000018004068
S1130B2010B584B001AC2000094B98470F23019302
S1130B30F0231B036360012323720022A2726372F9
S1130B400233E37221000F20024B984704B010BD1A
S1130B50050200001902000010B500220F2104480C
S1130B60044B984700210F20034B984710BDC04603
S1130B70C50A0000010300002D03000070B5154BE9
S1130B809847154B9847154940200860144B1A683C
S1130B9002431A60203808601A6802431A60103849
S1130BA008601A6802431A600E4B98470E4B984728
S1130BB00E4B984701220E4B1A70BFF35F8F62B63B
S1130BC0FA2080000B4B9847FA25AD00094C280009
S1130BD0A047FCE789090000150100000844004112
S1130BE010440041210B0000590B0000DD0A0000F5
S1130BF00800002055010000002243088B4274D3F2
S1130C0003098B425FD3030A8B4244D3030B8B4209
S1130C1028D3030C8B420DD3FF22090212BA030C12
S1130C208B4202D31212090265D0030B8B4219D3F3
S1130C3000E0090AC30B8B4201D3CB03C01A524113
S1130C40830B8B4201D38B03C01A5241430B8B425B
S1130C5001D34B03C01A5241030B8B4201D30B0344
S1130C60C01A5241C30A8B4201D3CB02C01A52416B
S1130C70830A8B4201D38B02C01A5241430A8B422E
S1130C8001D34B02C01A5241030A8B4201D30B0217
S1130C90C01A5241CDD2C3098B4201D3CB01C01A31
S1130CA0524183098B4201D38B01C01A524143093B
S1130CB08B4201D34B01C01A524103098B4201D329
S1130CC00B01C01A5241C3088B4201D3CB00C01A96
S1130CD0524183088B4201D38B00C01A524143080E
S1130CE08B4201D34B00C01A5241411A00D2014633
S1130CF0524110467047FFE701B5002000F006F8A6
S1130D0002BDC0460029F7D076E770477047C04659
S1130D1070B500260C4D0D4C641BA410A64209D1DD
S1130D20002600F03DF80A4D0A4C641BA410A642AC
S1130D3005D170BDB300EB5898470136EEE7B30018
S1130D40EB5898470136F2E7AC0D0000AC0D0000FB
S1130D50AC0D0000B00D00002604000022040000C9
S1130D602204000088040000880400003A04000003
S1130D702C0400004004000076040000100500006C
S1130D80F0040000F00400007C05000002050000EF
S1130D901E050000F40400002C0500006C05000092
S1130DA0F8B5C046F8BC08BC9E467047DD0000009C
S1130DB0F8B5C046F8BC08BC9E467047B5000000B4
S10F0DC0401F00000800000001000000BB
S90309B93A
